:020000040800F2
:1000000000500020B5100008FD030008FF030008A1
:10001000B1100008B1100008B11000080000000085
:10002000000000000000000000000000B310000805
:10003000B310000800000000FF040008E9030008F6
:10004000B1100008B1100008B1100008B11000088C
:10005000B1100008B1100008B1100008B11000087C
:10006000B1100008B1100008B1100008B11000086C
:10007000B1100008B1100008B1100008B11000085C
:10008000B1100008B1100008B1100008B11000084C
:10009000B1100008B1100008B1100008B11000083C
:1000A000B1100008B1100008B1100008B11000082C
:1000B000B1100008B1100008B1100008B11000081C
:1000C000B1100008B1100008B1100008B11000080C
:1000D000B1100008B1100008B1100008B1100008FC
:1000E000B1100008B1100008B1100008B1100008EC
:1000F000B1100008B1100008B1100008B1100008DC
:10010000B1100008B1100008B1100008B1100008CB
:10011000B1100008B1100008B1100008B1100008BB
:10012000B1100008B1100008B1100008B1100008AB
:10013000B1100008B1100008B1100008B11000089B
:10014000B1100008B1100008B1100008B11000088B
:1001500010B50B4801F0EAF900F068FD014648B916
:10016000084801F0E3F9642400F03AF8204600F072
:10017000E9FCF9E7044801F065F90C24F4E700BF55
:100180009C2000089F200008A42000081FB50F4CE9
:1001900000BF013CFCD100F029F822464FF4007169
:1001A0000B4800F0E5FA78B94FF480630122CDE9FD
:1001B0000132084B084A009310212346074800F0FB
:1001C00093FA08B900F0F8FAFEE700BF40420F00CA
:1001D00070000020F402002051010008700200208D
:1001E0002021014800F0DEBE0008014038B5EFF3E1
:1001F0001083012383F310882A4D00F08BFE40F218
:10020000023000F03CFF202300222846032100F0AA
:1002100097FD2021284600F0C3FE40F20230224C18
:1002200000F02DFF4FF4407000F029FF40F29130B4
:1002300000F025FF204600F0F9FE0C23022228469C
:10024000032100F07DFD20464FF4E13100F0B4FEC3
:100250002046082100F0C4FE2046002100F0C9FE1F
:100260002046002100F0CBFE2046002100F0D3FE06
:100270000C21204600F0C9FE204600F0D2FE0B49BA
:10028000642000F06BFF00F087FF00F08DFFFF217E
:10029000FE2000F091FFFE21FF2000F08DFF0020E6
:1002A00038BD00BF000801400044004000A24A04DD
:1002B00030B5EFF31082012383F310880C4B00322A
:1002C000196818BF012209B90A4919600A4D19684D
:1002D00000F580642D680C44A54226BF40181860C4
:1002E0000021EFF3108382F31088084630BD00BF71
:1002F000F406002044150020000000084FF0FF30F5
:1003000070474FF4005300204B6070470120704746
:10031000002070470228F8B50E46144613DD00F0A1
:100320005FFF052303604FF0FF300BE0384600F01D
:100330008DFEC0B20D2808BF0A20013D3070002D8F
:10034000F4D12046F8BD1546004FF8E700440040C0
:100350000228F8B50D46144612DC0D4E8F18AF4238
:1003600001D16000F8BD2B780A2B03D10D21304656
:1003700000F061FE15F8011B304600F05CFEEEE770
:1003800000F02EFF052303604FF0FF30EAE700BFC7
:100390000044004008B500F0E3F818B1836E0BB1DB
:1003A000C06E9847FEE7000010B50446044B021DDE
:1003B0009A6000F011FF2046BDE8104000F06EB8D2
:1003C000F806002008B5064B1A6842B1596004319E
:1003D000996000F001FF4FF08052024B1A6008BD97
:1003E000F806002004ED00E008B500F0B1F800F0D8
:1003F00071FBBDE80840012000F0D6B9FEE7FEE73A
:1004000038B5044621F003004FF0807140F8041C19
:100410001E494FF0EE3540F8081C4FF0CC314FF03C
:10042000333C40E904154FF022314FF0113E40E9D2
:10043000061C4FF0BB3500216FF0020C40E9081E8E
:1004400040E90A5C4FF0AA3E4FF099354FF0883CE6
:1004500040E90C5E4FF077354FF0663E40E90E5CA8
:100460004FF0553540E9105E4FF0443540F8445D9B
:100470002060C4E91A23201D602200F081FF044B94
:10048000A360044BE360044B236138BD950300086F
:10049000782100089821000858210008012181F3E3
:1004A00010882649096881F3088825490860486052
:1004B0008A68244B1A60016881F309880221EFF3EE
:1004C00014820A4382F3148804B0F0BCA046A94603
:1004D000B246BB4688B0F0BC09B00FBC84468E461D
:1004E00004B485B006BC03B006B485B003BC03B049
:1004F000002283F3008882F310880CBD00BF012026
:1005000080F3108810484FF0006101600C480168CA
:10051000426891420DD0EFF3098323E9F04F0B605D
:1005200002608468074B1C601368B3E8F04F83F3E4
:100530000988002080F31088704700BF0000000881
:10054000F80600200C00002004ED00E0FEE70000AB
:10055000024A136801331360704700BF040700208C
:10056000034B1B6813B9034B186870470020704792
:10057000040700200C07002070B5F8B1F1B1026843
:1005800013461446E3B193F8646091F86450AE42A8
:1005900011D993420AD101600020C1E91C031967F7
:1005A00003E00160C1E91C22002070BDC1E91C43C9
:1005B00061671967F8E71C465B6FE3E7C920F4E75A
:1005C000002AEED0C1E91C436167EDE750B1036832
:1005D00033B1596F0022016001B10A67C3E91C22DF
:1005E000184670470346FBE730B5E8B10268EAB148
:1005F00014461546A142636F11D18A4209D10360A6
:100600000BB100221A670023C1E91C330B461846C0
:1006100030BD6B674B6F002BF5D01D67F3E72546A8
:100620001C46002BE6D1F2E70346F0E71346EEE75F
:1006300068B103684BB193F864208A4207D85A6FB7
:10064000026012B1002111675967184670470023F4
:10065000FBE70000F8B5214B1B7813B3EFF31085CF
:10066000012383F310881E4F00353C6818BF012515
:1006700094F87830012B03D094F88030012B11D1FD
:100680001848FFF7A3FF00238442014680F8783022
:1006900003D038602046FFF795FEEFF3108385F313
:1006A0001088F8BD012894F8641013D109B2C9B2BA
:1006B0000C48FFF7BDFF06460028EED0214609484A
:1006C000FFF75AFF0023B44286F87830E5D03E6049
:1006D0003146DFE70029E0D00139E7E708070020CD
:1006E0000C07002094070020F8B58E46DDE906755A
:1006F0000446B8B3B2B3AFB3A5B3002625F00305E3
:10070000043D80F8786080F864E0C0E91C66C66744
:10071000C0E91A237919FFF773FEEFF3108501235F
:1007200083F310881048AD1B214618BF0125FFF741
:1007300023FF044630B1EFF3108385F31088CC24F7
:100740002046F8BDEFF3108385F31088074B1B7824
:10075000012BF5D1FFF704FF0028F1D02046FFF769
:1007600079FFEDE7C924EBE7940700200807002094
:100770001FB50023074C2360074C2360074C2370F0
:10078000CDE901120090064AFF210648FFF7ACFFB1
:1007900004B010BD0C0700209407002008070020BB
:1007A0004D05000810070020024A1368013B136042
:1007B000FFF750BF04070020012208B5064BFF21B8
:1007C00006481A70FFF734FF28B1054B1860BDE8E2
:1007D0000840FFF7E9BD08BD080700209407002086
:1007E0000C07002038B50546C0B1EFF31084012393
:1007F00083F310880223016881F879300023406870
:10080000CB67FFF7F1FE29680548FFF7B5FEEFF368
:100810001083003418BF012484F3108838BD00BF52
:100820009407002020B1002301710360184670472F
:10083000C92070472DE9F047074600283FD0002621
:100840004FF001084FF0CA09DFF878A0EFF31085E8
:1008500088F310880035384618BF0125FFF7B6FE2B
:10086000044638B380F8799001465046FFF784FE7D
:1008700070B1EFF3108385F31088CC242EB1FFF70D
:100880006FFE10B10020FFF7E5FE2046BDE8F087BF
:10089000E06F48B100F0F2F828B1EFF3108385F370
:1008A0001088CD24EAE7E067EFF3108385F3108822
:1008B0000126CBE7EFF3108385F31088DEE7C92428
:1008C000E3E700BF940700202DE9F0430E4687B010
:1008D0008046002857D0EFF31085012787F3108852
:1008E0000379003518BF0125002B44D100293CDBDA
:1008F000FFF736FE044690B301464046FFF73CFE44
:10090000814638B1EFF3108385F31088CC2007B00F
:10091000BDE8F08384F87870FEB11C4B02A8E06754
:10092000CDE900480293CDF80CD0049600F08AF887
:1009300040B121464046FFF757FECD2084F878901D
:10094000C4F87C90EFF3108385F310880028DED183
:10095000FFF780FE94F87900D9E7E067F2E7EFF35C
:10096000108385F31088C820D1E7EFF3108385F357
:1009700010880320CBE7013B0371EFF3108385F36D
:1009800010880020C3E7C920C1E700BFE5070008C1
:1009900070B500283CD0EFF31085012383F3108855
:1009A0000468003518BF01253CB3FFF70FFE014670
:1009B00006461848FFF7E0FD044630B1EFF3108318
:1009C00085F31088CC24204670BD86F87900F06F3E
:1009D00068B90023F367EFF3108385F31088FFF7FE
:1009E000BFFD0028EFD00020FFF734FEEBE700F05A
:1009F00045F80028EDD0CD24EDE70379FF2B1ABF91
:100A000001330371CB24EFF3108385F31088DAE709
:100A1000C924D8E79407002010B578B1EFF310840B
:100A2000012383F3108801680548FFF7A5FDEFF364
:100A30001083003418BF012484F3108810BD00BF58
:100A400094070020A8B103689BB183688BB1EFF3D2
:100A50001083012282F31088074A0033116818BFFF
:100A60000123C1601060EFF3108283F3108800202F
:100A70007047C920704700BF9C07002070B5F0B1D7
:100A8000EFF31082012383F310880E4900320C68C3
:100A900018BF0122234626460BB9CE2007E0834229
:100AA000DD6809D10020A3420CBF0D60F560EFF3B3
:100AB000108382F3108870BD1E462B46ECE7C920D8
:100AC000F9E700BF9C070020014B1868704700BF82
:100AD00098070020F8B5184B1B7863B30020174A1D
:100AE000174C13682168013313600E460B4602460B
:100AF000844686464BB900B12160E2B11368D468E0
:100B00000BB1506898472246F7E7D3E90257013DF9
:100B10009D605DB98B4212BFF7603946012042B13A
:100B2000CCF80C30C3F80CE09C4633461E463B46DE
:100B3000E0E71A46F6E7F8BD08070020980700200E
:100B40009C07002030B587B00546FFF709FD034636
:100B50002DB330B3EFF31084012282F3108880F8B4
:100B60007820114A019002A80292D86701AACDE923
:100B70000325FFF767FF231C18BF0123044638B184
:100B8000EFF3108283F31088CD24204607B030BDE8
:100B9000EFF3108283F31088FFF75CFDF5E7C924BB
:100BA000F3E7C824F1E700BF190A00082DE9F8436C
:100BB00006460025104FDFF84480DFF844903B687C
:100BC000012B00D11DB16420FFF7BCFFFBE73324EC
:100BD000013C0AD04046FFF7DBFE0028F8D0CB28C6
:100BE000F6D0484600F0A2FC0125002EE7D00120F7
:100BF000FFF7A8FFE3E700BF34090020A0070020AB
:100C00005321000810B504460648FFF7C1FE064B05
:100C10001B68012B05D1A3602046BDE81040FFF7FB
:100C200011BF10BDA007002034090020F0B500213D
:100C300089B03448FFF7F6FD012428B1324800F0AE
:100C400075FC204609B0F0BD304B08A8304F40F885
:100C5000103D3C60CDE90504FFF7F4FE60B12D487E
:100C600000F064FC2748FFF7E5FD0028E9D02A489A
:100C700000F05CFC0134E4E74FF48066274D234626
:100C8000029401960095264A0F212648FFF72CFD75
:100C9000034608B12448E3E705F580620092CDE9F8
:100CA00001641F4A10212148FFF71EFD034608B1C9
:100CB0001F48D5E705F50065CDE901640095184AA0
:100CC00011211C48FFF710FD08B11B48C8E7FFF7CA
:100CD000FBFE0C4D00F5FA74FFF7F6FEA04201D3BF
:100CE000002409E064212846FFF7EEFD0028F3D038
:100CF000124800F01BFC0124002302203B60FFF798
:100D000021FFAFE7A0070020AF200008050C000876
:100D100034090020CF2000084521000838090020B0
:100D2000AD0B0008A8070020E72000082C080020D1
:100D300004210008B0080020212100083E210008FD
:100D40002DE9F0434FF6E07796469C4602684368EB
:100D500000254FF00F084CFA05F4E40719D5072DCC
:100D6000ACB28BBF3C4616461E46A40098BFA4B248
:100D700008FA04F926EA090604F102090EFA09F94B
:100D800001FA04F449EA04043443082D2CBF234635
:100D9000224601350437102DBFB2DCD1026043601A
:100DA000BDE8F083024A136843F080731360704714
:100DB00000100240062822D8DFE800F004090E13D4
:100DC000181A1C000F4B1868C0F3406070470D4B99
:100DD0001868C0F3C06070470A4B1868C0F34070D1
:100DE0007047084B1868C0F340407047054B02E05D
:100DF000054B00E0054B1868C0F340007047002029
:100E0000704700BF00100240201002402410024032
:100E1000024608B51046FFF7CDFF0028FAD008BDFE
:100E200006281FD8DFE800F004060B10151719007C
:100E3000FFF7B8BF0C4A136843F0806311E00A4A19
:100E4000136843F080530CE0074A136843F480337F
:100E500007E0054A02E0054A00E0054A136843F04E
:100E600001031360704700BF0010024020100240D1
:100E700024100240034A136823F003031843106050
:100E8000704700BF04100240034A136823F4701334
:100E900043EA80401060704704100240034A136820
:100EA00023F4803343EA004010607047041002408E
:100EB000034A136823F4003343EA4040106070474C
:100EC00004100240034A136823F4404343EA80308D
:100ED0001060704704100240034A136823F4605303
:100EE00043EAC0201060704704100240034A1368B0
:100EF00023F4E06343EA00201060704704100240CE
:100F0000034A136823F0F00343EA001010607047AF
:100F10000410024008B50420FFF782FF0420FFF709
:100F200077FF0020FFF7A6FF0320FFF779FF0320DC
:100F3000FFF76EFF0120FFF79DFF0020FFF7E0FFA6
:100F40000320FFF7BFFF0420FFF7D0FF0020FFF7CB
:100F5000C3FF022000F0A2F80720FFF795FF012051
:100F6000FFF79CFF0020FFF7A3FFFFF71BFF002008
:100F7000FFF74EFF0220FFF77DFF044B044A0549AF
:100F80001360054A1160054A136008BD00A24A04B7
:100F9000000000200051250204000020080000206D
:100FA00001617047C36803EA010221EA030141EAD3
:100FB0000241016170470000064A074B90421B68DE
:100FC00004BF064B1B6801EB43034900B3FBF1F37D
:100FD00083607047003801400400002008000020B2
:100FE000C36808290CBF23F4805343F48053C360C3
:100FF0007047036923F44053194301617047C36884
:1010000023F4C0631943C1607047C36823F00C0325
:101010001943C1607047436923F440731943416128
:101020007047C36843F40053C3607047C36823F438
:101030000053C360704738B504460D4600F017F8FA
:1010400029462046BDE8384000F009B810B50446EE
:1010500000F011F82046BDE8104000F004B8C1F3DC
:101060000801416070474068C0F30800704703689A
:101070001B06FCD5704703689B06FCD570474309E7
:1010800003F1804303F504331A6800F01F000121C7
:1010900001FA00F01043186070470000034A13681B
:1010A00023F0070318431060704700BF0020024080
:1010B000FEE77047184C194919480022531883421B
:1010C00003D2135953500432F8E7164A00219342D1
:1010D00002D219600433FAE7134A144C1368144D12
:1010E00043F400731360AC4203D254F8043B9847B6
:1010F000F9E7104C104DAC4203D254F8043B98472A
:10110000F9E7FFF743F80D4C0D4DAC4203D254F80C
:10111000043B9847F9E700BFF021000800000020D9
:10112000700000204415002014ED00E0F0210008BC
:10113000F0210008F0210008F0210008F02100084B
:10114000F0210008044A00F00400136823F00403AF
:1011500018431060704700BF10E000E0B1FBF0F1F1
:1011600008B50A4B99420ED8094B99428ABF002014
:101170000420C908FFF7E6FF064B013921F07F4143
:101180001960012008BD002008BD00BFF7FFFF0760
:10119000FEFFFF0014E000E0024A136843F0020380
:1011A0001360704710E000E0024A136843F0010347
:1011B0001360704710E000E0432893BF00F16040E7
:1011C000044B00F00F0000F564408CBFC154017067
:1011D000704700BF14ED00E0BFF35F8F7047000061
:1011E000014B1868704700BF0C000020002310B5A9
:1011F0000446C0E90033836081814366C281C0E94F
:1012000004338361194608225C3000F0B9F8054BBD
:1012100024626362044BA362044BE362044B2363C6
:1012200010BD00BF5D1500087F150008B715000848
:10123000DB150008014900F085B800BFB5180008AB
:1012400070B568254A1E55430E4605F1740100F03D
:101250009FF8044640B10021C0E900160C30A060A0
:1012600005F1680200F08CF8204670BD836910B566
:10127000044633BBC0E912330365124B124A1B68A4
:101280008262984204BF0123836100F01FF860600E
:10129000204600F01BF8A060204600F017F800225E
:1012A000E06004216068FFF7A1FF01220921A06826
:1012B000FFF79CFF02221221E068FFF797FF01234E
:1012C000A36110BDB821000835120008F8B51B4B0A
:1012D00007461E68B36913B93046FFF7C7FF4836A3
:1012E000D6E90134013B03D5336833B13668F7E7FB
:1012F000B4F90C506DB16834F4E704213846FFF7B7
:101300009FFF30600028F1D10C2304463B6020464B
:10131000F8BD0B4B6566C4E90055A560C4E903350B
:10132000C4E905550822294604F15C0000F028F8BC
:10133000C4E90D55C4E91255E9E700BFB82100081A
:101340000100FFFF2DE9F84380468946002600F1A1
:10135000480414B93046BDE8F883D4E90175013F6B
:1013600001D52468F5E7AB89012B07D9B5F90E3013
:10137000013303D029464046C84706436835EEE7A7
:1013800003460244934200D1704703F8011BF9E77A
:1013900070B5CD1C25F0030508350C2D38BF0C2584
:1013A000002D064601DBA94203D90C23336000203F
:1013B00070BD00F01FFB214A1468214691B9204CF2
:1013C00023681BB9304600F0B9F820602946304642
:1013D00000F0B4F8431C24D10C233046336000F0F5
:1013E0000AFBE4E70B685B1B18D40B2B0FD90B60CF
:1013F000CC18CD50304600F0FEFA04F10B00231D4E
:1014000020F00700C31AD3D05A42E250D0E74B680D
:101410008C4216BF636013600C46EBE70C464968CC
:10142000CCE7C41C24F00304A04205D0211A3046A6
:1014300000F084F80130CFD02560DBE738150020BC
:101440003C1500200FB40A4B13B51C6824B1A369E6
:1014500013B92046FFF70AFF05AB049AA16820469E
:10146000019300F03DFB02B0BDE8104004B07047AE
:101470000C00002070B50E46054618B183690BB903
:10148000FFF7F4FEAB69AC6813B92846FFF7EEFE30
:10149000234B9C4217D16C68A3891B071DD5236978
:1014A000DBB1013EA36816F8011F013BA360E9B957
:1014B000002B2EDA22460A21284600F093F801304C
:1014C00011D00A2011E0174B9C4201D1AC68E3E730
:1014D000154B9C4208BFEC68DEE72146284600F029
:1014E000E5F80028DDD04FF0FF3070BD002B04DAA6
:1014F000A2699A4206DC0A2904D023685A1C226099
:101500001970CFE72246284600F06CF80130C9D1A7
:10151000E9E70A2023685A1C22601870E5E700BF3B
:10152000782100089821000858210008024B014644
:101530001868FFF79FBF00BF0C00002038B50023DC
:10154000054C054608462360FEF7B2FE431C02D157
:10155000236803B12B6038BD4015002010B50C4640
:10156000B1F90E1000F058FD0028ABBF636DA389E0
:101570001B1823F48053ACBF6365A38110BD2DE914
:10158000F0411F468B890546DB050C46164605D5FE
:1015900002230022B1F90E1000F0B6F9A3893246F9
:1015A00023F48053A381B4F90E103B462846BDE8CE
:1015B000F04100F069B810B50C46B1F90E1000F01A
:1015C000A3F9431CA38915BF606523F4805343F43A
:1015D0008053A38118BFA38110BDB1F90E1000F094
:1015E000D3B80000F8B50E461446054618B1836915
:1015F0000BB9FFF73BFE214B9C422AD16C68A369D3
:10160000A360A3891A072ED5236963B323692068D1
:10161000F6B2C01A63693746834204DC2146284685
:1016200000F048F928BBA3680130013BA3602368A0
:101630005A1C22601E706369834204D0A389DB07B1
:1016400019D50A2E17D12146284600F033F990B15A
:101650000FE00B4B9C4201D1AC68D0E7094B9C4298
:1016600008BFEC68CBE72146284600F01FF80028A9
:10167000CCD04FF0FF373846F8BD00BF78210008C6
:10168000982100085821000838B50546084611463B
:101690000022054C22601A46FEF75AFE431C02D176
:1016A000236803B12B6038BD40150020324B70B564
:1016B0001D6806460C4625B1AB6913B92846FFF7ED
:1016C000D5FD2E4B9C420FD16C68B4F90C309AB208
:1016D00015072CD4D00611D40922326043F0400300
:1016E000A3814FF0FF303EE0254B9C4201D1AC6816
:1016F000EBE7244B9C4208BFEC68E6E7510712D5A4
:10170000616B41B104F14403994202D0304600F0CC
:1017100073F900236363A38923F02403A3810023C7
:10172000636023692360A38943F00803A3812369CD
:101730004BB9A38903F42073B3F5007F03D021468E
:10174000304600F017F9A28912F001030CD00023F3
:10175000A36063695B42A361236953B9B4F90C3098
:1017600013F08000BAD170BD920758BF6369A360BF
:10177000F2E70020F7E700BF0C0000207821000806
:10178000982100085821000838B50023054C05466B
:1017900008462360FEF7B2FD431C02D1236803B163
:1017A0002B6038BD401500208A892DE9F04105469F
:1017B00010070C4658D44B68002B05DC0B6C002B33
:1017C00002DC0020BDE8F081E66A002EF9D000239B
:1017D00012F480522F68216A2B6032D0606DA38989
:1017E0005A0705D56368C01A636B0BB1236CC01A26
:1017F00000230246E66A216A2846B047431CA389B3
:1018000006D129681D2948D8294ACA40D60744D597
:10181000002262602269D904226004D5421C01D1F1
:101820002B6803B96065616B2F600029C9D004F192
:101830004403994202D0284600F0DEF8002060639D
:10184000C0E701232846B047411CC8D12B68002BB4
:10185000C5D01D2B01D0162B01D12F60B1E7A38974
:1018600043F04003A381ADE70F69002FA9D0930790
:1018700018BF00230E6808BF4B69A6EB07080F606E
:101880008B60B8F1000F9CDD43463A46216A28463A
:10189000A66AB047002806DCA38943F04003A38171
:1018A0004FF0FF308EE70744A8EB0008E9E700BFE0
:1018B0000100402038B50B6905460C46DBB118B174
:1018C00083690BB9FFF7D2FC0C4B9C4209D16C68C1
:1018D000B4F90C307BB121462846BDE83840FFF70B
:1018E00063BF074B9C4201D1AC68F1E7054B9C42BA
:1018F00008BFEC68ECE7002038BD00BF7821000885
:10190000982100085821000838B5054608461146B8
:101910000022054C22601A46FEF7FAFC431C02D155
:10192000236803B12B6038BD4015002070B50E460A
:10193000B1F90E1096B0002914461D4607DA0023AF
:101940002B60B3891A0610D44FF480630EE06A4608
:1019500000F074FB0028F2DB019A02F47042A2F559
:1019600000535A425A412A60EEE740230020236088
:1019700016B070BD8B8973B59D0706460C4607D51A
:1019800004F14703236023610123636102B070BD4A
:1019900001AB6A46FFF7CAFF009905463046FFF7DC
:1019A000F7FC48B9B4F90C309A05EFD423F00303DF
:1019B00043F00203A381E3E70D4BB362A3892060E8
:1019C00043F08003A381009B20616361019B5BB1B5
:1019D000B4F90E10304600F043FB28B1A38923F080
:1019E000030343F00103A381A3891D43A581CDE730
:1019F000351200087047704738B50546002943D0B6
:101A000051F8043C0C1F002BB8BFE418FFF7F2FF9D
:101A10001E4A1368104633B9636014602846BDE857
:101A20003840FFF7E8BFA3420BD921686218934200
:101A300001BF1A685B685218226063600460EDE7BA
:101A400013465A680AB1A242FAD919685818A04236
:101A50000BD120680144581882421960DED1106809
:101A60005268014419605A60D8E702D90C232B60F0
:101A7000D4E7206821188A4201BF1168526809180A
:101A8000216062605C60C9E738BD00BF3815002086
:101A9000936810B4013B002B936007DA9469A3426A
:101AA00001DB0A2902D110BCFFF79CBD1368581C4A
:101AB00010601970084610BC7047F8B506460F460E
:101AC0001446D518AC4201D1002007E03A4614F87C
:101AD000011B3046FFF7DCFF431CF3D1F8BD0000CB
:101AE0002DE9F04F9DB00C4617460393064618B1FA
:101AF00083690BB9FFF7BAFB7B4B9C4257D17468E3
:101B0000A38918075DD52369002B5AD000230993B8
:101B100020238DF8293030234FF0010B8DF82A3027
:101B2000B846454615F8013B0BB1252B54D1B8EB0F
:101B3000070A0BD053463A4621463046FFF7BDFF11
:101B4000013000F0C280099B5344099398F800309B
:101B5000002B00F0BA8000234FF0FF32CDE90523BF
:101B6000049307938DF853301A93A846052218F86A
:101B7000011B5E4800F084FA049B78BBD90644BF81
:101B800020228DF853201A0744BF2B228DF85320B2
:101B90002A782A2A2AD0A84600200A25079A4146F0
:101BA00011F8013B303B092B69D960B324E0504B5D
:101BB0009C4201D1B468A3E74E4B9C4208BFF46835
:101BC0009EE721463046FFF771FD00289ED04FF07A
:101BD000FF301DB0BDE8F08FA846A2E7434A454656
:101BE000801A0BFA00F018430490BEE7039A111D07
:101BF00012680391002A01DB079204E0524243F08D
:101C000002030792049398F800302E2B0ED198F817
:101C100001302A2B38D1039B08F102081A1D1B68DA
:101C20000392002BB8BF4FF0FF330593324D0322D0
:101C300098F80010284600F023FA40B14023401BDA
:101C400003FA00F0049B08F101080343049398F899
:101C500000100622294808F101078DF8281000F02D
:101C60000FFA002837D0264B1BBB039B073323F00A
:101C7000070308330393099B4B44099350E705FB83
:101C80000232012088468AE700230A25194608F116
:101C900001080593404610F8012B303A092A03D970
:101CA000002BC3D00591C1E705FB0121012380462C
:101CB000F0E703AB00932246124B04A93046AFF382
:101CC0000080B0F1FF3F8146D5D1A3895B063FF587
:101CD0007EAF09987DE703AB00932246094B04A928
:101CE000304600F087F8ECE778210008BC210008B6
:101CF0009821000858210008C2210008C6210008C8
:101D000000000000BB1A00082DE9F04791461F466D
:101D10008A680B6906469342B8BF1346C9F800307B
:101D200091F843200C46DDF8208012B10133C9F848
:101D300000302368990642BFD9F800300233C9F851
:101D40000030256815F0060507D104F1190AE3688B
:101D5000D9F800209B1AAB4229DC94F84330226862
:101D6000003318BF012392062ED404F143023946F2
:101D70003046C047013021D02368E56803F00603F0
:101D8000042B18BF0025D9F800204FF0000908BF28
:101D9000AD1AA368226908BF25EAE5759342C4BF5E
:101DA0009B1AED181A344D451AD1002008E0012382
:101DB000524639463046C047013003D14FF0FF301C
:101DC000BDE8F0870135C2E73020E11881F8430013
:101DD0005A1C94F845102244023382F84310C4E799
:101DE0000123224639463046C0470130E6D009F18A
:101DF0000109D8E72DE9F04301F1430C0C46097EB7
:101E000085B06E291746064698460C9A00F0B380B6
:101E100022D8632936D00AD8002900F0B980582981
:101E200000F0838004F1420584F8421032E0642916
:101E300001D06929F6D120681368050603F1040171
:101E40002AD51B681160002B03DA2D225B4284F82F
:101E500043206F480A2239E0732900F09D8008D89A
:101E60006F2920D07029DDD1236843F0200323603F
:101E700003E0752917D07829D4D17823654884F8F0
:101E8000453055E0136804F14205191D1B681160C7
:101E900084F8423001238CE01B6810F0400F116081
:101EA00018BF1BB2CFE713682568181D10602806FD
:101EB00001D51B6802E06806FBD51B886F2914BF9B
:101EC0000A2208225248002184F843106568002D38
:101ED000A560C0F29580216821F004012160002BEB
:101EE0003DD1002D40F08E806546082A0BD1236835
:101EF000DB0708D5236962689A42DEBF302305F804
:101F0000013C05F1FF35ACEB05032361CDF8008002
:101F10003B4603AA21463046FFF7F6FE01304DD17D
:101F20004FF0FF3005B0BDE8F083394884F8451024
:101F3000136821681D1D1B6815600A060BD5CA07AA
:101F400044BF41F0200121601BB9226822F0200229
:101F500022601022B7E74D0648BF9BB2EFE7654607
:101F6000B3FBF2F102FB1133C35C05F8013D0B46F4
:101F70000029F5D1B9E713682568181D616910605B
:101F800028061B6801D5196002E06A06FBD5198096
:101F9000002365462361B9E71368191D11601D68A8
:101FA00062680021284600F06BF808B1401B6060B1
:101FB00063682361002384F84330A7E723692A4636
:101FC00039463046C0470130AAD023689B0713D456
:101FD000E068039B9842B8BF1846A3E701234A462E
:101FE00039463046C04701309AD00135E368039A3C
:101FF0009B1AAB42F2DCEBE7002504F11909F5E787
:10200000002BACD1037804F1420584F842306CE730
:10201000CD210008DE21000838B5054608461146E6
:102020000022054C22601A46FEF774F9431C02D1C7
:10203000236803B12B6038BD4015002038B500235C
:10204000064C0546084611462360FEF75AF9431C24
:1020500002D1236803B12B6038BD00BF40150020BA
:1020600038B50023054C054608462360FEF74EF9B7
:10207000431C02D1236803B12B6038BD40150020FA
:1020800010B5C9B202449042034601D1002303E0D7
:102090001C7801308C42F6D1184610BD476F0050B5
:1020A000617373004661696C28256C75290A0045C7
:1020B00072726F72206372656174696E67207465F5
:1020C00073742073656D6170686F726520310045AF
:1020D00072726F72207265676973746572696E6778
:1020E0002074696D6572004572726F72206372654B
:1020F0006174696E672074657374207468726561B9
:10210000642031004572726F722063726561746978
:102110006E67207465737420746872656164203220
:10212000004572726F72206372656174696E672018
:10213000746573742074687265616420330053653C
:102140006D4765740044656C657465206661696CF3
:10215000656400507574000000000000000000007D
:10216000000000000000000000000000000000006F
:10217000000000000000000000000000000000005F
:10218000000000000000000000000000000000004F
:10219000000000000000000000000000000000003F
:1021A000000000000000000000000000000000002F
:1021B000000000000000000010000020232D302B44
:1021C0002000686C4C006566674546470030313238
:1021D000333435363738394142434445460030318F
:1021E00032333435363738396162636465660000EE
:1021F00000127A0000127A0000127A00100000200B
:1022000000000000782100089821000858210008EB
:1022100000000000000000000000000000000000BE
:1022200000000000000000000000000000000000AE
:10223000000000000000000000000000000000009E
:10224000000000000000000000000000000000008E
:10225000000000000000000000000000000000007E
:04000005080010B52A
:00000001FF
